S01A0000424C454361626C655265706C6163656D656E742E733337C0
S2140000000000012005650000016500000165000094
S2140000100165000001650000016500000165000043
S2140000200165000001650000016500000165000033
S2140000300165000001650000016500000165000023
S21400004001650000954F0000016500000165000095
S21400005091480000994F00009D4F00004548000061
S214000060A54F000001650000016500000165000065
S21400007001650000016500000165000001650000E3
S21400008001650000016500000165000001650000D3
S21400009001650000016500000165000001650000C3
S2140000A001650000016500000165000001650000B3
S2140000B0F9470000A14F0000A94F000001650000AD
S2140000C0E947000001650000B94F00000165000027
S2140000D00165000001650000016500000165000083
S2140000E00165000001650000016500000165000073
S2140000F001650000016500000165000010B5054CB3
S214000100237833B9044B13B10448AFF300800123BE
S214000110237010BDA8000020000000004C8D0000D9
S21400012008B5034B1BB103490348AFF3008008BD75
S21400013000000000AC0000204C8D0000154B002B8A
S21400014008BF134B9D46A3F5803A00218B460F4609
S2140001501348144A121A06F091FF0F4B002B00D0DA
S21400016098470E4B002B00D0984700200021040033
S2140001700D000D48002802D00C48AFF3008006F0B2
S21400018059FF2000290004F027FF06F03FFF00BFBC
S2140001900000080000000120000000000000000031
S2140001A0A8000020A81B002000000000000000009F
S2140001B047F6FF73994270B54ED0284B13F830209F
S2140001C0012A1E464FEAC0000CD10344D8780138F5
S2140001D000B220B15A6832F910208A42F7DC0130AA
S2140001E0C0B270BD03445C68B4F90050A94203DC99
S2140001F01B4D8D42B8BF0D46304428234178A5F1EB
S214000200C80292FBF3F2524213B29942DCBF01F1EC
S214000210FF331BB24FF47A7604EBC3020133D08867
S21400022092681BB215FB002020EAE070994200F5A8
S214000230FA70B0FBF6F204DD04EBC300808882425D
S214000240EAD904EBC30333F8040C904228BF1046E7
S214000250002808BF0120C3E7FF20C2E76C16002075
S214000260C880FFFF37B50446684680E8060003C826
S214000270251D85E805002373069B2361BDF81C3009
S214000280A38200232360084B1A6812B91C6004E09E
S2140002900A4611680029FBD114609888013080B2A4
S2140002A0988003B030BD00BF7009002007B5037901
S2140002B00193054A0368009306CA02230830FFF735
S2140002C0D1FF03B05DF804FB408D00000A4B40F2FE
S2140002D0011210B51A604FF0FF329A6001225A6080
S2140002E008441A46814202D1D869C04310BD11F8AD
S2140002F0014B9461F6E700BF00C00140F8B5431E0D
S214000300504E514F032B0AD8DFE803F002968C912B
S2140003108022402506230724002972D104E0002904
S2140003206BD14FF4007208233B4432669B001A6878
S214000330002AFCD160E0736A13F0300F63D1434BA0
S214000340DB6B736ADC0705D5726A22F0300242F076
S214000350100272620324022304253A4A1566DA194B
S21400036092001368002BFCD03C44A4002368002BAA
S214000370FCD0022840D100293ED0324B5A6A12F0F7
S214000380010F1A4643D04FF48062C3F8A8202022FB
S2140003905A665A6A12F0300F0CBF4FF440024FF400
S2140003A00002D3F8901032EA0101FAD1520201D5C8
S2140003B0D3F8A030234E00210220D6F89C70FFF719
S2140003C09DFFD6F89030726A214B22F0300242F040
S2140003D010027262C7F30A07316BFA0903320F2A5A
S2140003E003EA010328BF0F223B4343EA0273336349
S2140003F035662368002BFCD0F8BD092408234FF48B
S21400040080750021A9E7032402230425F9E7536A2F
S214000410D2F8903003F44003B3F5400FF8D1D2F889
S214000420A030C7E70125022200232C4674E72022CD
S2140004301025042305246FE700297FF47CAF0822EB
S214000440022371E700400E408004F21000300E4098
S21400045000F8FF0F70B5134C2268A2F17E63A3F577
S2140004608433B3F5605FE0B005460E4617D2126BD4
S214000470A2F17E63A3F58433B3F5605F0FD2536AAF
S21400048069464FF4C0720020984730B923681B6B4A
S2140004903246DB6A29466846984760B070BD4FF41E
S2140004A00170FAE72808E10F0F4A10B41468A4F1A7
S2140004B07E62A2F58432B2F5605F0B460FD2246BE3
S2140004C0A4F17E62A2F58432B2F5605F07D2246999
S2140004D0064A0146A44600205DF8044B60474FF4E8
S2140004E081705DF8044B70472808E10FC0090020B2
S2140004F070B51C4D2A68A2F17E63A3F58433B3F56C
S214000500605FE0B004D34FF40174204660B070BD65
S214000510136B002BF7D05B6A4FF4C072694600205D
S214000520984704460028F0D140F201262A68A2F136
S2140005307E63A3F58433B3F5605FE4D2126BA2F159
S2140005407E63A3F58433B3F5605FDCD2936A002143
S21400055068469847B042E9D040F20323984218BF55
S2140005600446D2E72808E10F154B0228D3F880315D
S21400057013D0032814D0012814BFDBB2C3F307231B
S2140005801B0323F47042B1B9BAB90E49CA6E22F4FD
S21400059070421343CB6601207047C3F30743EFE76F
S2140005A01B0EEDE70749D1F8E02022F47042134312
S2140005B0C1F8E030EFE7002AF4D00020704700BF13
S2140005C0B081E00F00300E40304B1A6FD96CC9076F
S2140005D002F0070242D5012A40D9132851D914380F
S2140005E013288CBF102308232849013BCA6C180324
S2140005F022F47F4240EA03231343CB64244BCA6CA5
S2140006001B88C2F303222833013202EB820003EB7D
S2140006105303B3FBF0F3C86C013B072B20F0EE60EE
S21400062028BF072340F4801040EA0363CB64194BCD
S214000630B3F90030002B10DB2833500800EB4202E1
S21400064003EB5303B3FBF2F30A6D072B28BF072314
S21400065022F0700242EA03130B657047DB6CD90781
S21400066006D4012A04D809280BD90A380928B8E77D
S214000670064BDB6C13F00103B6D0012A03D82728FB
S214000680AFE70423B0E70023AEE700BF00300E401C
S2140006908E09002092090020054A064B1B68136F3E
S2140006A023F007031843044B10671888FFF78CBF26
S2140006B000300E408009C6438C09002042EA03231E
S2140006C040F2011293422BD0B3F5817F08D2012B62
S2140006D01DD030D3B3F5807F31D0002213461CE006
S2140006E040F20122934222D006D8B3F5007FF4D11F
S2140006F0174BD3F870310DE0B3F5407F23D040F2AE
S21400070001329342E9D1124BD3F878310BE0104B0B
S214000710D3F87431C3F30722DBB203600A60704774
S2140007200B4BD3F874311A0EC3F30743F5E7084BA7
S214000730D3F87831EEE7064BD3F86C31EAE7044B92
S214000740D3F86C31EFE7024BD3F87031EBE700BF1C
S214000750B081E00F044A1368002BFCD1034B5868A5
S214000760C0F30140704700BFC800C64300300E40CB
S21400077000B962B67047000010B50246EFF310806D
S21400078072B6054C23685940114059402160FFF766
S214000790EFFF03EA020010BDE81E002100F00F0084
S2140007A00138072848D8DFE800F0040F1947232D42
S2140007B04735244BD3F8943003F00703023B052B50
S2140007C03CD8214AD05C70471E4BD3F8803003F0EB
S2140007D00703013B032B33D81C4AF3E7194BD3F826
S2140007E0843003F00703013B032B29D8184AE9E7B6
S2140007F0144BD3F8883003F00703013B032B1FD8B4
S214000800144ADFE70F4B1B6F13F0010F14BF0920CC
S214000810072070470B4BD3F85C3103F03003202BD6
S21400082006D0302B06D0102B0CBF072001207047B7
S2140008300420704708207047002070470520704746
S2140008400120704700400E40387100003E710000E5
S214000850427100003E7100000E4B30B50E4C5B68D6
S214000860C9B2002304EBC30215798D4203D154F8B4
S214000870335085420BD20133052BF3D103220549B1
S2140008804B6823F0407343EA02634B6030BD5279F5
S214000890F5E700BF00000E404077000038B5054C75
S2140008A041F67133256C2364FFF7D6FF0DB10023A4
S2140008B0236438BD00000E400C4B984210D90C4BF8
S2140008C0984210D9022201230A490B600A49D1F83E
S2140008D0003123F0807343EA0263C1F800317047A9
S2140008E000221346F0E70122FBE700BF0048E801BC
S2140008F00090D0034000C84300400E400A4A5368A8
S2140009005B0708D1094B5B682BB1094B1B6AC3F325
S2140009100C03013B9361074B80221A60064A13685A
S21400092023F0200313607047000008404C1F00218E
S2140009300010084088400846E81E0021084BD3F8FF
S214000940882012F0A00F0AD108229A60054B1B6877
S21400095013F4007F14BF044A044A0223136070474E
S21400096000400840001F00210040084600400844A0
S214000970EFF3108072B60A4B4FF080521A604FF4B5
S21400098080721A6010221A6020221A604FF00052FD
S2140009901A6080221A6040221A60FFF7E9BE00BF84
S2140009A000E100E0EFF3108072B6224B4FF0805269
S2140009B0C3F88020BFF34F8FBFF36F8F4FF4807262
S2140009C0C3F88020BFF34F8FBFF36F8F0222C3F8A8
S2140009D08020BFF34F8FBFF36F8F1022C3F88020A5
S2140009E0BFF34F8FBFF36F8F2022C3F88020BFF373
S2140009F04F8FBFF36F8F4FF00052C3F88020BFF3C6
S214000A004F8FBFF36F8F8022C3F88020BFF34F8FC6
S214000A10BFF36F8F4022C3F88020BFF34F8FBFF322
S214000A206F8F0122C3F88420BFF34F8FBFF36F8F01
S214000A30FFF79EBE00E100E010B5046884EA0103FB
S214000A4023EA020200F1806314401C6040F8042C84
S214000A5000F1C0600A40026010BD00004DF804BD01
S214000A60EFF3108072B6144B1978E9B9134BD3E93B
S214000A7000234FF0000C02F4105B5BEA0C0313D16A
S214000A800F4B10221A600D4BD3E900234FF0000CD9
S214000A9002F4807B5BEA0C030BD1094B5DF804BBC8
S214000AA020221A60FFF764BE064B10221A60002947
S214000AB0E9D0044BF2E700BF60120020D00D002002
S214000AC094400844944008462DE9F04107461646EF
S214000AD08846FFF7C3FF07F0AA620023134348F2D5
S214000AE0020108BF4FF40041B20748BF41F400516D
S214000AF000224F48FFF7A0FF07F4004200231343ED
S214000B0007F480324FF0000314BF4FF480510021E9
S214000B10134307F010024FF0000318BF41F4807132
S214000B20134307F020024FF0000318BF41F40051B2
S214000B30134307F040024FF0000318BF41F4007162
S214000B40134307F080024FF0000318BF41F48061A2
S214000B50134318BF41F4006100223648FFF76CFFCC
S214000B6008F004030022134307F400624FF000036A
S214000B7014BF4FF480210021134307F480424FF046
S214000B80000318BF41F48031134307F002024FF010
S214000B90000318BF41F4801113434FF0000307F41D
S214000BA0003218BF41F40011134318BF41F400216E
S214000BB0730748BF41F0040101221F48FFF73CFFBE
S214000BC01E4B1F491F4816F0010F18BF194607F0A5
S214000BD00052002313434FF0000307F0804218BF73
S214000BE041F40011134318BF41F000710022FFF7D3
S214000BF023FF07F0010100221348FFF71DFF07F44B
S214000C00802200231343114B1149124807F00404B5
S214000C104FF0000518BF194654EA050318BF41F403
S214000C2080614FF4A022BDE8F041FFF705BF00BF8A
S214000C306C0008400C62084020400840041C50002D
S214000C4004185000685008403C7008400D0A0A0915
S214000C50090A0A09EC100840044B00221A70044BDB
S214000C60197811B11A70FFF7F9BE704768160020A0
S214000C7060120020024B5868C0F30360704700BF44
S214000C800040084008B5EFF3108172B6FFF7F2FF98
S214000C90032806D1074A136823F0F00343F0E00365
S214000CA01360054B01225A620846BDE80840FFF76C
S214000CB05FBD00BF541F002100000840094B1B68A1
S214000CC030B5C517A3FB000103FB051110F18073B7
S214000CD041F10004580E40EAC410803820EAE07063
S214000CE030BD00BF1C1800202DE9F04B0C46054611
S214000CF0002800F0C280C80777D5E88A002800F0F0
S214000D00BE80714BAA681B68C3F17F4303F57F035F
S214000D1003F576433C339B1A4FF47A7202FB00309D
S214000D20FFF7CCFF694E7062688A002800F0AA8040
S214000D30654BAA681B68C3F17F4303F57F0303F581
S214000D4076433C339B1A4FF47A7202FB0030FFF76F
S214000D50B5FF5F4AAB8AF0611768002B00F0A880E9
S214000D604FF47A725A43584B1B68D21AAB68D21AA1
S214000D70584BD3F83031190440F18780A2F548402B
S214000D80AF384FEAE079A0FB07BC1BF1807007FB89
S214000D9009CC4CF10001430E43EAC113A2F53832E8
S214000DA0803BA2F2BF32D1173362A2FB072312F1B7
S214000DB0807007FB013343F10001420E42EAC11284
S214000DC0803A688B3260002875D03F4B1B68C3F1B1
S214000DD07F4303F57F0303F576433C334FF47A7283
S214000DE002FB0030FFF76AFF3063A20729D5EB89C4
S214000DF04FF47A7058435BB12B6803F51C531033DD
S214000E0018442B79002B46F2A81308BF0023184479
S214000E10FFF754FF2D4AD062288B00284ED0AB68CF
S214000E20A3F50353103B4FF47A7101FB00302B7986
S214000E30002B46F2A81308BF0023C01AFFF73EFF98
S214000E409062630719D52B8A002B3AD04FF47A703C
S214000E505843A0F503501038FFF730FF1B4AA98906
S214000E6050614FF47A70484321B12B6803F51C5348
S214000E7010331844FFF722FF9061BDE8F08B47F26D
S214000E8030504DE747F2305061E72B68A2F6C412A7
S214000E90D21AD117A2FB072312F1807007FB013389
S214000EA043F10001420E42EAC112803A326288E7FC
S214000EB047F23052EDE747F2305093E747F23050B2
S214000EC0BCE747F23050C7E718180020841F0021FF
S214000ED01C1800200060084038B5124D4FF4002260
S214000EE02A60114A1060114A1268D2B1104B114C98
S214000EF01B6F00F5F42000F59070B0FBF4F4033C93
S214000F00E4B203F00703A34202D02046FFF7C4FB77
S214000F10094B1B782BB1094B4FF4702224041A603E
S214000F202C6038BD94400846180000208009C6434F
S214000F3000300E4040420F009009002094400844C4
S214000F40064B5B6BC3F3C20203F0070002B15043CB
S214000F50C3F3821303B15843704700BF0030084004
S214000F60064A1146536803F07063B3F1C06F02D1AE
S214000F70D36BDB06F6D540238B60704700400840F5
S214000F800D4BDB6C13F0200F0CBF00200420D9069D
S214000F9048BF02301A0744BF0230C0B2590744BFE8
S214000FA00230C0B29A0744BF0130C0B2DB0744BF6C
S214000FB00130C0B2704700BF00000840044BD3F8B1
S214000FC09430002BBCBF034BC3F88000704700BFB3
S214000FD0004008400000084013B502AB03E90300D8
S214000FE0084B01991868009B484300EB8370064B3A
S214000FF01C684FF000420023E1FB0423184402B0B3
S21400100010BD00BF901600208C16002038B5024692
S214001010EFF3108072B6094C094B0A4DA1691B7894
S2140010202D68DBB20DB1A1690133FFF7A1FB03F018
S2140010300303C2E90031104638BD00BF0050084027
S214001040A51B0020880B0A437FB56C460546204644
S214001050FFF7DCFF94E80300FFF7BEFF02AC06468E
S2140010602046FFF7D3FF94E80300FFF7B5FF801B89
S214001070A842F5D304B070BDF8B5094D094E0A4F25
S214001080D5F8882004243460D5F888305B0300D473
S214001090F8BD3C600220FFF7D7FF3460F4E700BFDE
S2140010A000400840884008468840084411F0080F71
S2140010B014BF2A4A2A4A38B5054611F0010F4FF0E8
S2140010C00803A961136014BF244A254A01230C466D
S2140010D01360FFF7D1FF14F0040F14BF214A224A11
S2140010E04FF400731360214B042214F0020F1A60B1
S2140010F014BF1A4A1A4A0223136014F0100F1C4B2E
S21400110014BF00221B2214F0800FDA644FF4001381
S2140011100ED0184A1360FFF7B5FD04F06004402CAB
S214001120154B16D0602C06D0202C15D101220AE0D3
S214001130124A1360F1E7EA6A72B1116801290BD905
S214001140526942F001021A610D4B80229A6000201B
S21400115038BD40F20112F6E70022F4E744000846E4
S214001160440008441C6008461C6008448840084444
S2140011700000084018600846541F00211860084404
S214001180004008402DE9F04F074687B00D4614464C
S214001190EFF3108872B6DFF8BC91030199444FF460
S2140011A08076624B01228640022CC9F800205E66DB
S2140011B004D14046FFF7DCFA012014E00DF1100AD6
S2140011C05046FFF723FF9AE80300FFF705FF012CC0
S2140011D004BF01352D18401BB0F1804F06D24046A3
S2140011E0FFF7C6FA002007B0BDE8F08F4F4ADFF8D9
S2140011F054C1116FD26E07F1090321F0E00102EA33
S2140012000C0C1802C9041B0622F0E00243F48033DB
S21400121040F00100C90CD20481420CBF0421002119
S214001220D20C9C4508BF41F00201904208BF41F035
S214001230010111F0010A18BF3D4BDFF8F0C018BFDE
S2140012401D60DCF8303001933A4B0598D3F800B0B7
S21400125025F0404E4FF000420023EEFB0B23CDE975
S2140012600223354A039B126802FB0E32019B9A4208
S21400127028BF1A46049B9042C3EB957584BF05F1C0
S214001280FF35DCF830302D4B05F00305A2EB000EE1
S214001290DD559C4685B1BAF1000F03D0284B41F6C8
S2140012A01F751D608B0742BF254B264D1D604D07E1
S2140012B042BF1E4B00251D671C4B03EB0715C5F8E8
S2140012C00C2107F11002120111259D509A69DD6D5F
S2140012D0101A7045FFF46DAF35427FF46AAF1CF804
S2140012E00700012208B11E6663E71CB9C9F8002092
S2140012F05E6674E71E66BAF1000F08D0104B1248FF
S21400130041F61F7240F201141A6004601A608A07E0
S21400131006D50B4B0C480B4A0C4C1A6004601A603E
S2140013204B0742BF0A4B01229A6042E70050084032
S214001330540100209C1B0020A01B00204C01002014
S2140013406C50084400001F1F6C5008460000010146
S21400135000400840005108441E491F4A30B54C88DA
S2140013601368B4F5E16F114623F47F538CBF5A22FD
S214001370C82223F008038CBF50257825824226BF5A
S2140013801C0A04F47F5443F6C87423431E280B60DB
S2140013904FF0010308D91149A8420B608B6107D8AA
S2140013A00F4B08221A6014E00E4A13609361F7E7A9
S2140013B00D494DF601730B608B610C4B824234BFB6
S2140013C04FF457404FF4504008221860986143F895
S2140013D0702C30BD2A000020E81F00210841084676
S2140013E0944008440841084404410844044108461F
S2140013F008B5FFF7A5FD09281CD80F4B01281A5C75
S21400140005D10E4B1B78012B14BF042244220C4B33
S2140014100C491960110902F00F000B0502F00702D3
S21400142043EA00130904134301F4E021064A0B4380
S214001430136008BDFA22EAE7A98C00002A00002003
S21400144050410844F701F701504108460A4B0B4942
S2140014504FF48032C3F8E8200A609A6BD1B2C2F328
S214001460072299679A6704229A6700229A679A6702
S2140014709A679A679A67704700100840EC1008460B
S214001480EFF3108072B60E4B0E4A01219965C3F831
S214001490881011600C495160072151620B4A118077
S2140014A00B4900220A804FF4A021C3F8E81003F18C
S2140014B0C063EC331960074B1A60FFF759B900BFD9
S2140014C00010084060100840C80000204A010020B4
S2140014D04801002034060020034B044A18601860B8
S2140014E0034B12681A60FEE71C000020580100201B
S2140014F020000020294938B50868294B29499A6BED
S214001500096800FB0212196B274B1B68C9024CBF07
S214001510D218D21A254B1C6814B92B20FFF7DCFF13
S21400152023482449B2FBF1F10144234B4D7823496B
S214001530EA40B2FBF1F10844417843F6FF501860E8
S21400154002EB5403B3FBF4F3013B43EA053343EAEF
S21400155081231B490B601B49B2FBF1F301FB1322ED
S21400156064214A4318498A4298BF03F1FF335A0858
S214001570013A072A06D801335B08013B072B01D83E
S21400158012B90BB91020C9E71B0243EA02130F4930
S2140015900F4A4FF4EE600860136038BD580900200B
S2140015A000300840600900205C0900201800002078
S2140015B03477000040BE4025A4400844401B5F131B
S2140015C0A440084600F04902FFEF490230400844B4
S2140015D030400846431E012B03D9031F584258418A
S2140015E07047012070477047094A13884FF6FF710D
S2140015F08B4210B509D00748074C046000F1007014
S2140016001B0403601180002010BD0320FCE700BF10
S214001610241800205C6008440000FFFF054B426D64
S2140016201A600178C90101F400614FF40060FFF709
S214001630A3B800BFEC1E0021054BA0221A601022A2
S21400164043F8882C034B18680C30FFF7E7BF00BF41
S21400165088400844580100200F4B5B68C3F30363BF
S214001660013B0B2B0DD8DFE803F014140614140C02
S21400167014080A080808032070470420704705204D
S2140016807047064BDB6813F0060F14BF04200120DA
S21400169070470220704700BF0040084000500840D6
S2140016A003789A072DE93048014612D5826A82B13E
S2140016B06FF34103037050690268531C0BD01E4938
S2140016C0D1F83C311B0C1B0494B22343C1F83C31C7
S2140016D00260BDE83088D1E91A23002403F004052F
S2140016E054EA050304D10B7843F002030B70F0E7CD
S2140016F0EFF3108072B64B690A6903F480331A431D
S2140017000A61FFF735F800229BB90023D1E91A4594
S21400171002EA040B03EA050C5BEA0C03D9D007487F
S21400172004685A46A1F10C0063462146BDE83048DD
S21400173008470423EAE700BF0040084024000020D2
S21400174070470000094B30B5196C5C6C00222346CC
S21400175042EA0104220C82701A0A210AC2701A0C8C
S2140017601B0E047041700271437130BDB081E00FF2
S214001770214BD3F8F82102401CD170B4D3F8FC51A9
S214001780D3F8006203F5FC74641BA410022C12D07C
S214001790032C29D0012C1AD0184A52682A6005F169
S2140017A00C026860C3F8FC21A96033680C33336010
S2140017B070BC70477047114A1C1D52682A606860EA
S2140017C004221960C3F8FC41326070BC70470B4CB1
S2140017D01A4664682C6042F8080B08205960C3F863
S2140017E0FC21306070BC7047044C6468A960C5E991
S2140017F00040C3F8FC31E7E798180020001000E02E
S214001800837DDB0701D5808A7047D0E901239B1AC8
S21400181044BF828A9B1898B270470000044B5A6DEA
S21400182022B95865A3F85810012070470020704769
S214001830F8080020D0B50C4CE38C0A20584305F07D
S21400184049F90646A08C0F4605F044F90022074BDE
S21400185005F0AAF902460B463046394605F0CEFAA0
S21400186005F0B4FB2083D0BDF80800200000F43F4C
S214001870084A10B5146840F2E243584303FB01419E
S214001880536800F5807001EB5001184411605060F9
S21400189010BD00BFF808002070B500228AB01346BD
S2140018A0D91003F00704415C2141CC0741BF0AA9C7
S2140018B08918013201F8283C0133252BF0D10E4D52
S2140018C00023D91003F00704415C2141C90707D55E
S2140018D0E91881F82A300133252BF2D10AB070BD01
S2140018E00AAE93FBF2F102FB11313144EC1811F809
S2140018F0286C84F82A60EEE7F8080020012810B566
S21400190014BF0124022420460CBF04212146FFF701
S21400191061FE70B10120FFF75DFE50B1FFF79CFE3F
S214001920420706D40D4B188840F0807040EA044009
S21400193018600846FFF74EFE78B10120FFF74AFE12
S21400194058B1FFF789FE830707D4044A13681B0CB7
S2140019501B0443F480730B43136010BD001F00216B
S214001960024B986C80B28002704700BFB081E00FD7
S2140019707FB50E4B02466D4603F11006186859688F
S2140019802C4603C40833B3422546F7D1531E04A998
S2140019900F3211F8014D13F8010F844204D193421F
S2140019A0F7D1012004B070BD0020FBE70C710000E9
S2140019B070B51A4D286810BB194B1A4CE41A1A4B0E
S2140019C01C4424F4FF6424F00704FFF7C9FF844294
S2140019D014D2666BA6B1FFF7C3FF864210D2FFF79C
S2140019E0BFFF06F1380383420AD83046FFF7C0FF30
S2140019F030B1F36933F0080302D02C60286870BD5C
S214001A0004F1FC063046FFF7B3FF20B1D4F81831D6
S214001A1033F00803F1D104F50064D6E7BC030020D8
S214001A2010000020A400002097950000BFF34F8F01
S214001A300549064BCA6802F4E0621343CB60BFF365
S214001A404F8F00BFFDE700BF00ED00E00400FA0581
S214001A500A4B1A68A2F17E63A3F58433B3F5605F80
S214001A6009D2126BA2F17E63A3F58433B3F5605FEF
S214001A7001D2D36B184740F2011070472808E10FD7
S214001A800D4B10B41C68A4F17E63A3F58433B3F544
S214001A90605F0BD2246BA4F17E63A3F58433B3F5A9
S214001AA0605F03D2A36B5DF8044B184740F2011049
S214001AB05DF8044B704700BF2808E10F064B1A6814
S214001AC0A2F17E63A3F58433B3F5605F01D2536A57
S214001AD018470020704700BF2808E10F064B1A6819
S214001AE0A2F17E63A3F58433B3F5605F01D2136A77
S214001AF018474FF4817070472808E10F064B1A68A4
S214001B00A2F17E63A3F58433B3F5605F01D2D36997
S214001B1018474FF4817070472808E10F114B196879
S214001B2001F1704303F5F813B3F5006F0CD20E4BBA
S214001B301B68A3F17E62A2F58432B2F5605F03D221
S214001B4009680A4A914203D00023037083607047F5
S214001B501968074A9142F7D1012202709A684260DA
S214001B609B69F3E72800E10F2808E10FAD1007B0E6
S214001B7007B0CD5E10B50C4630B90448FFF7CEFF6F
S214001B80034B23600423A380002010BD1004002014
S214001B901404002010B508B3114B1A6891888142CE
S214001BA01CD39988814281BF0121126899809A606E
S214001BB099889A6800242AB904B19A604FF6FF7192
S214001BC0998009E0884204D00131126889B2012464
S214001BD0F1E70CB198809A60104610BD0022FBE732
S214001BE07809002037B50D461446FFF7D3FFD8B165
S214001BF00369828A63B14FF6FE718A4208D10020DB
S214001C000090ADF804006946984738B103B030BD7F
S214001C102B602280286848B92080F7E7009B2B605D
S214001C20BDF804302380F5E70120EFE70020EDE75C
S214001C3037B50D461446FFF7ADFF70B1036973B1B3
S214001C40818A4FF6FE72914209D10095ADF80440A4
S214001C5069460120984703B030BD0120FBE70E20FF
S214001C60F9E700000B4BD3F8942002F00702022A93
S214001C7004D001D3042A0AD9074800E00748D3F85D
S214001C800031C3F304230133B0FBF3F070474FF485
S214001C900040F4E700400E40C0EA210100F049028F
S214001CA008B5FFF7DFFF044BD3F81031C3F3082362
S214001CB00133B0FBF3F008BD00400E4010B50446FB
S214001CC0FFF7EEFF8C40641142F210714C43642320
S214001CD0B0FBF3F0B4FBF0F010BD00003F4B404A01
S214001CE02DE9F047002814BF80464FF00108C3F8DE
S214001CF000803C4B9B69C3F38213062B0F46137080
S214001D0064D0394B1B78022B62D0012B0CBF3225D6
S214001D10B4255FFA85FA08215046FFF7CFFF4FF04B
S214001D2003090426082480450ED053D93444E1B272
S214001D305046FFF7C3FFB9F101094FEA5606F2D144
S214001D40804538BF04F1FF34264B2A04C3F8BC2074
S214001D50264A40F6FF71116002F1007221021160FE
S214001D60D3F8BC80D3F8B8905FFA88F009F00F017A
S214001D70FFF7A4FFC9F303110646C8F30720FFF7D1
S214001D809DFFC9F303210644C8F30740FFF796FFFB
S214001D90DFF854803044A8F80400FFF781FF05FA06
S214001DA004F44FF4FA75124B6C4341F66A05B0FB27
S214001DB0F5F0B4FBF0F40A204443012138461C60D9
S214001DC0FEF792FFB8F80400BDE8F0870025A0E70C
S214001DD096259EE738BFA41BA9E700BFE00D0020AC
S214001DE028000020006008402A000020B860084450
S214001DF018180020C26A38B562B11368022B09D9D8
S214001E00536AC3F3072020B1126ADBB25343B3FB15
S214001E10F0F038BD274B9C6904F03003202B36D1F8
S214001E20C4F3024018B1C4F3C421B1FBF0F014F4BB
S214001E30C01F18BF40004108032928BF0421FFF730
S214001E402FFF1C4A156DABB22BB1C5F30745C00872
S214001E506843B0FBF3F3D2F830211204164A126C32
S214001E6002F4C05248BF5B08B2F5805F05BF114A56
S214001E70126BC4F30112C2F34162022A11D0032A84
S214001E8015D0012A00D15B0803FB01F0C1E7C4F3BB
S214001E908213012B01D0042B01D10221CFE70121AF
S214001EA0CDE7C4F3C4220132B3FBF2F3ECE79B08A0
S214001EB0EAE700BF006008400000084008B5FFF7EA
S214001EC0D1FE044BD3F80831C3F308230133B0FB2B
S214001ED0F3F008BD00400E40FFF7C4BE404B2DE9AE
S214001EE0F74F93F800A03F4D80460E46174699469A
S214001EF0BAF1000F3AD1FFF733FD3B4CA0F5805006
S214001F002060FFF72DFD394A0123A0F500606060D0
S214001F1013602168019304310820FEF7D7F9226880
S214001F20019B1268824208BF2268616808BFD2F827
S214001F3004B001F104014FF008000CBF9A46D346E6
S214001F40FEF7C4F963681B68834205D163685B6863
S214001F505B4506D8002305E0BAF1000FFAD1FF234F
S214001F6000E001232B70012389F8003095F900303A
S214001F705A1C05D100203870306003B0BDE8F08FE1
S214001F80194ADFF86C9052F823500C352C464FF661
S214001F90FF7AC4F30A030833B3F5006FEAD2A388C6
S214001FA05345E7D0A079211D0430FEF78FF923684A
S214001FB08342E38802D1A28842450BD0DBB20333CA
S214001FC003F4FE7308331C4485EA040313EA090F7E
S214001FD0DFD0CFE708343B7001203460CDE700BF88
S214001FE09018002014000020840900201816C8430A
S214001FF000F8FFFF37B50379124A0333044601930E
S21400200000F14403009306CA02231430FEF72AF9AF
S214002010228A0192E268237A009204F12C0094E866
S2140020200600FEF71FF9237AA4F84500054684F853
S21400203044302279216804F1470005F036F8284636
S21400204003B030BD388D000070B50E4C0E4B04F159
S214002050100206460D4692E80300183483E8030093
S2140020601846FEF723F9094B94E8030002221A7279
S21400207083E80300DE601D821846BDE87040FFF767
S214002080B9BF00BF0C7100002C18002040070020CC
S214002090042806D80138032806D8DFE800F0020234
S2140020A0020200231B78FFDE70470000B1F9121011
S2140020B047F6FF73994210B5044609D0054B1878C9
S2140020C0FEF776F8A37883428CBF0020012010BD6F
S2140020D00120FCE72A0000202DE9F04105461646BF
S2140020E08846FFF78DFBAB8A181A80B2864228BF57
S2140020F0064637465FB93EB1D5E901329A4202BF7D
S214002100AB7D43F00103AB753046BDE8F081AB8A8A
S2140021102C68A8681C44241AA3B2BB428CBF3C4659
S214002120A4B22246414604F0C0FFAB682968AA8ADA
S21400213023440A44A0449342A7EB0404AB60A7B22E
S21400214028BFA960D6E770B5044615461E4611B3EB
S214002150FFF756FBA38A181A80B2012829D9E37D17
S21400216063B1E368628A1A70120A07D02068A18AEF
S214002170013301448B4228BF0346F4E70023638201
S214002180A368E360022204F112012046FFF7A4FFD1
S214002190E37D0133E375324629462046FFF79CFF70
S2140021A0638A03446382E37D13B9238A034423824C
S2140021B070BD0020FCE700002DE9F0410D4F0646FB
S2140021C00D4614460CB9BDE8F081EFF3108872B6E0
S2140021D023462A4631463846FFF7B5FF03464046B3
S2140021E0FEF7C6FA002BEDD0E41AA4B21D44002672
S2140021F0E8E700BF1011002013B5002301F1080422
S214002200ADF80430ADF8060021461A46083151F8FC
S214002210100C70B90BB1ADF8042004220DEB0201CE
S21400222001200834FFF7C8FF54F8101C39B902B073
S21400223010BD51F80C3C1A4492B20123E6E734F87C
S2140022400C2C0020EDE700007FB500230130CDE91F
S2140022500101CDE904336946044B00930420039240
S214002260FFF7CAFF07B05DF804FB00BFFE030020BF
S2140022702DE9F041164605468846FFF7C1FA864224
S21400228028BF0646B6B237464FB92EB1AB7DDA0741
S21400229044BF23F00103AB753046BDE8F081AB8A3E
S2140022A02C6869681C44641AA3B2BB428CBF3C46C7
S2140022B0A4B22246404604F0F8FE6B682968AA8A53
S2140022C023440A44A0449342A7EB04046B60A7B2DD
S2140022D028BF6960D8E770B51E46038A04461546CF
S2140022E0EBB9C27DDAB10123013A0B70C27500F179
S2140022F010010222FFF7BCFFE37D9BB1228AB242A7
S21400230028BF324629462046FFF7B2FF238A1B1A0B
S2140023102382E37D13B9638A1B1A638270BD002390
S2140023200B70EBE7638A2382E8E7000070B50E4681
S214002330B0B9FFF73DFB0446FFF73AFB60B1094D25
S21400234004F1FC0304F59A74186859682A4603C217
S2140023500833A3421546F7D1034B33600423B380FA
S214002360002070BDC0030020E00300202DE9F041EE
S214002370414C2278032A804602D0C820FEF7ECFFA4
S21400238026783E4D032E06D14FF0FF0885F80080D4
S2140023904046BDE8F0813A4C3A4A2368012E02EAEC
S2140023A0030219D1B8F1070F28BF4FF00708B8F19C
S2140023B0010F354B38BF4FF00108042142EA08628E
S2140023C019601FFA88F85FFA88F82260404685F898
S2140023D00080FEF7C1FFDBE742F47F5747F00807AF
S2140023E0002E44D1B8F1040F42D901260423A8EBED
S2140023F00308264BD3F88811C94301F4FE1141F4B3
S2140024000051B1FA81F1C1F11301C1EB41115FFA3C
S21400241088F8CBB2434528BF434603EB86080BB18A
S214002420013BDBB21F21B3FBF1F1C1EB41129A1A5B
S214002430C9B24FF0FF331206013103FA01F102F17F
S2140024408072C9433A4342EA8132B8F1000F10491C
S214002450104B18BF4FF07F43C1F858314FF480033C
S21400246046B101F1C06101F584710B60ABE700264F
S2140024703346BCE70849F8E72A000020150000208C
S214002480E81F00213F00C0E05841084400400E40CD
S214002490004008400400000B0841084408B590F8C6
S2140024A0DC30032B04D00846FFF760FF002008BD91
S2140024B00220FCE70C4B032210B51A605860EFF3BD
S2140024C0108072B6D3F8E020520758BF04224FF0AF
S2140024D00004DC60996058BFC3F8E820FEF748F9AE
S2140024E009B102229A6210BD0010084010B50E4CC9
S2140024F0D4F8002108B9FFF7B5FBD4F80031FFF790
S214002500B1FB0446FEF726F968B1084B40221A6173
S21400251019B1074A1368002BFCD120460021BDE8FC
S2140025201040FEF7BBB910BD00400E4000300E4014
S214002530C800C643000000002DE9F347704BCDE904
S214002540000115466CA1D1E900011C68DDE90023F5
S21400255002400B40134300F094806A4BD3F81C31C2
S214002560DDE90023002302F08052134309D0664BB6
S2140025701B6803F07F43B3F1007F02BF634B022268
S2140025801A60DDE90023002302F00102134358D04D
S214002590EFF3108072B65E49DFF8A481D1E900231C
S2140025A022F001061F46C1E900675A4A5A4901232C
S2140025B013608B63FEF7DCF8EFF3108972B6FEF754
S2140025C059FB8B689B09C3F3090A0246980548BF66
S2140025D04AEA080AFEF74EFB0238C0B201280FFA94
S2140025E08AFA7DD8931EDBB2012B8CBF0023012311
S2140025F04846FEF7BDF81AF5007F73D1002BDBD1F5
S21400260000221146A4F812A0012000F0F7F8636A31
S21400261013F0800F14BF414A414A4FF40013136071
S214002620404B1A683AB140496FF0FF00086001F16C
S214002630007102400A6000221A60237B43F0080300
S2140026402373DDE90023002203F00403134318D0AC
S214002650DDE9006727F00407EFF3108072B6236AFF
S214002660E26903F001031A43E261FEF781F80022F3
S214002670002B3CD1002346EA020047EA0301CDE9DD
S2140026800001D4E91D23DDE9008908EA020809EA09
S214002690030958EA090318D0244B42461968204615
S2140026A04B46884708F00802002313431EBF204B02
S2140026B000221A601F4A002308EA020609EA0307F6
S2140026C056EA070301D0FEF78FFFEB0711D51A4A2B
S2140026D013680020106063B102B0BDE8F0471847E9
S2140026E0002385E7154A002B08BF924688E7042397
S2140026F0C1E702B0BDE8F087010018100400000032
S2140027005801002000500840001F002100400846E5
S214002710D00D00203C700844007008401860084641
S2140027201860084420180020187008442400002070
S214002730300600200000F8179418002000FEFFFF67
S21400274000FCFFFF0D4B1B782DE930489BB10C4B6E
S2140027501C6DC4F30C0474B9FEF77EFA094B0A4DDF
S214002760D3E900BC224601230BF4805000212B70D5
S214002770FFF7E2FE2C70BDE8308800BF6816002028
S21400278000100840D00D00202812002038B505465D
S214002790EFF3108472B6FEF773FE35B1FEF75CFAFF
S2140027A02046BDE83840FDF7E3BF034B1B78002BFF
S2140027B0F6D1FFF7C7FFF3E72812002038B50C4B19
S2140027C0D3F8EC5003F18063EC334FF480641C6064
S2140027D0084B00201860FFF7D9FF074B4FF4005254
S2140027E01A606A0542BF03F1007398331C6038BD57
S2140027F00010084030060020541008442DE9F04729
S21400280081460F461646EFF3108872B619B34D4947
S2140028100A46D1F8703103F00F03032B01D0092BC1
S21400282006D1D2F88C30D803F3D4536F0C2BF0D9E2
S214002830FEF722FC444B01221A6003F17E437C33F0
S21400284004221A60FEF716FA002877D13F4A13686A
S21400285023F0F00313603E4CFEF7C6FEA023236071
S2140028603C4BD3F83021D2070AD53B4901220A60F7
S2140028704FF40061596639490A604FF480525A662F
S214002880344D374BEB6600232B67FEF7F5FB354AD6
S214002890DFF8B0A0136843F020031360324BFF222A
S2140028A01A604FF48073CAF8083004232360B9F125
S2140028B0000F10D0FEF7E6F92220FEF77FFB4FF45C
S2140028C080236B602023CAF80830244B01221A604C
S2140028D04FF480536B6667B33046FFF757FF234BC2
S2140028E05B68234B01221A601EB3224BDA6E9A668F
S2140028F003F580431A6ADA6103F50053D3F80C2215
S214002900C3F80822A3F54053DA6F9A67A3F500537D
S214002910D3F8EC20C3F8E82003F5C043DA6B9A63DB
S214002920A3F50053144A5A66FEF796F94FF47C4313
S21400293023604046BDE8F047FDF71ABFFEF710FBE0
S21400294080E700BF004008400C400846541F0021A6
S214002950884008440050084030510844405108441C
S21400296000000101E81E002100400844B081E00F8D
S2140029700C400844000008405000F0022DE9F84FD3
S2140029801E46036A012B07460D46904600F0DA8085
S214002990FEF762FE012808D0002211460120FFF74C
S2140029A02DFFFEF759FE0128FBD1FFF779F9044603
S2140029B0FEF7C6FAB8F80C30D8F80410ED1A240B57
S2140029C0D8F80830C4EB8444002808BF0120B4FBC4
S2140029D0F0F0C009834284BFB3FBF0F40134ADB21B
S2140029E083BFB3FBF4F41A1B05FB02111C463F2DF4
S2140029F082BFAA099B0103FB0211544B1A6888BFC9
S214002A0005F03F058A42994625D1514B1B68A342E3
S214002A1018BF01264F4B504AD3F8383113F0100F29
S214002A204E4B0CBF90469846002E77D0FEF788FA9D
S214002A308246FEF785FA80B1494BB3FBF0F38B4232
S214002A400BD8484BB3FBF0F0884206D3BAF1000F20
S214002A5006D1022077E00126DCE70E20FEF73CFDDB
S214002A6001FB0AF6C9F800103F4ADFF81891002368
S214002A70F004710B03F05CFDD9F8301083463A4839
S214002A80C1F313014FEACA420023A1FB000103F081
S214002A904FFD364B344A18602D4BE0041C60A0FBFB
S214002AA00A01630B0AFB0311002303F041FDBAF190
S214002AB0010F14BF2E4A2F4A102313602E4BC9F85D
S214002AC02CB0C9F83C001A7822B9D9F8502002F088
S214002AD03F021A701F4AD2F89420520619D5274989
S214002AE0B6FBF1F140F24D5601FB01F256434CF2B3
S214002AF00C6202FB116101F5C91101F5556109B9B6
S214002B002B20ABE71A781E4B5343B3FBF1F11D4B5A
S214002B101965FEF7EFFC4046FEF7DEF93846FEF78D
S214002B20BFFDFEF7A7F80428FBD00A28F9D008B1A5
S214002B300F2093E7134B9D6303F5805380229A6022
S214002B40FEF7D8FC0020BDE8F88F00BF6009002023
S214002B505809002000400840C0CF6A00E0673500F2
S214002B6000371789007DDAAC00F049025C090020C6
S214002B703841084638410844A41B002000366E0140
S214002B80809698000030084008B500214FF4857004
S214002B90FEF7EEFD064B00221A6101221146104692
S214002BA0FFF72CFEFEF758FD0128FBD108BD00BF3D
S214002BB09C1600202DE9F74F7A4E11464FF486708A
S214002BC01D461446FEF7D4FD3369B14633B94FF4BB
S214002BD0837003B0BDE8F04FFEF7CABD002D08BFF6
S214002BE0082C40F0AA80EFF3108B72B66E4A6F4C3A
S214002BF016886F4924686F4D06F07F0202F0780051
S214002C0008447CBB2C883444073C04F078040C440D
S214002C10A21A521A2D8848BF8032954225DC5846A3
S214002C20FDF7A6FD0024D9F80430C9F814405B7AF5
S214002C3089F81830FB1F5F425F4199F81930A9F8F0
S214002C401AA067F3000389F81930019BC9F81C30F5
S214002C505949D9F810300220984703B0BDE8F04F24
S214002C60FFF7ACBD24F00104D2E7A042534829D1B7
S214002C70C6681FFA86F8016801F0070106310126CA
S214002C808E404F49D1F88010C1F30C018A42B6B28B
S214002C903EDA25882A04C2D4A778C5F30C05701E30
S214002CA0A5EB080507F0070730432840052F85B237
S214002CB013D9FEF765F9281A00B200280EDA0420A8
S214002CC0FEF70AFCA4F108058D4238BF04F178052A
S214002CD0B5F80080C8F30C08CDE728B21FFA80FAD2
S214002CE0384A013E126808EA0606931958460193C8
S214002CF0FDF73EFD002C96D0002F94D0082F92D0E2
S214002D00EFF3108072B6304B1C60FDF731FD8AE79A
S214002D108268701EA2EB080A304300EA0A001FFA17
S214002D2080FAFDF7A7FFBAF1000F04D103280CBF05
S214002D3008270027D4E70827D2E7002D08BFB4F5F8
S214002D40002F05D10021012003B0BDE8F04F184741
S214002D5004F4C0520023134309D04FF480714FF49B
S214002D608170FEF705FD336900210320ECE704F4CB
S214002D7040720023134309D001214FF48170FEF7FF
S214002D80F7FCD9F810300021FF20DDE704F02072B0
S214002D900023134319BF012140F2011021464FF4CE
S214002DA08370ECE79C1600204801002034060020C3
S214002DB0C80000204A010020B41600203010084049
S214002DC000100840C4000020300600202DE9F04323
S214002DD0884A536987B01BB3022B15682DD8EFF3CA
S214002DE0108072B6844A854F1188854E01F07F02A6
S214002DF01AD1844BB7F800C01B6833B901EB0C033B
S214002E00073B03F07803334401E023F001039A1AEA
S214002E10921B398848BF803291420ADCFDF7A8FC35
S214002E20204607B0BDE8F083012BF0D102F078030E
S214002E30E9E7FDF79DFC002BF2D0B3F8009019F4FB
S214002E40004FEDD19F7893F80580FEF799F8C4B24D
S214002E50002CE5D007F00703063B012B00F2C880E4
S214002E60694A6A4BDB6C136803F0070306330126D6
S214002E709E40A9F10609711E1FFA89F901EA0901A7
S214002E805368761AA4B243F00059A64249441ED2AB
S214002E903246684604F009F9A21B49460DEB0600C7
S214002EA004F003F99DF801009DF80030400018F08A
S214002EB0100FC0B259B220D008F0EF08A8F10608EB
S214002EC0B8F1030F19D8DFE808F0050F708A22461C
S214002ED06846E5E711F14E0F0FDA6FF04D035B1A07
S214002EE003EB8303184407E011F1480F05DA6FF08F
S214002EF047035B1A00EB4300C0B22B6C03B1984744
S214002F0004A8DDF80240FEF781F8DDE904329442B9
S214002F1088BF03F1FF3303F00303CDE9023402ABAD
S214002F2093E80300FEF758F8394A6B6CD2F8302164
S214002F30160406D5374C17F0080F4BF6EB6318BF90
S214002F4023464FF47A7403F5FA73B3FBF4F3C41A0A
S214002F5005F10C00FEF74EFF2D49D1F830311D0467
S214002F6044D4CB6DC3F301151B0C05FB033242F2B0
S214002F7010739A423FF654AFCB6903F01F03013338
S214002F801344234A2449D2F83021120444BF9B003C
S214002F9022481422B0FBF2F201FB03230A22B0FB04
S214002FA0F2F0B3FBF0F3E41A3AE703F10902D2B207
S214002FB0072A05D86FF001035B1A03EB430399E772
S214002FC04433DBB23A2B01D8233095E711F1440F96
S214002FD093DA6FF044035B1AC3EBC30382E704295A
S214002FE08BDCC1F1050300EB830085E72F23C8E7E0
S214002FF0002415E79C160020480100204A01002006
S214003000C8000020340600203010084000000840A9
S21400301000600840FBD90200A086010020A107003E
S2140030202DE9F047834DDFF840A2EF680446884656
S21400303000F138064FF00109B8F1000F04D0D8F8B7
S2140030400020511C40F08380FEF7D2F97A4B7B4972
S2140030509A690978C2F382129142984604D0784B56
S21400306031461868FEF73AFED8F8843013F4E05F6D
S21400307004BF2023C8F81032EB68E3622046FEF750
S214003080B9FE8046FEF70CFE6B4B6E4DD3F8301142
S214003090C00811F400414FEAC01008D000F5744390
S2140030A0DFF8C881684A2433B3FBF2F36B60674BE2
S2140030B000EB5800B0FBF8F0A8605A68D20200F1A6
S2140030C08880634A1268D3F8A800C2F3810210F41D
S2140030D0806302F10102C0B218BFD300FF2806D0F9
S2140030E05A48D0F8AC00400501D503EBC20301B145
S2140030F003332B61574B584A1B68E56AC3F3812399
S2140031001370564B1B68BD42C3F38123537017D010
S214003110534F25B12B6813B1A86800285BD1002156
S2140031200720FDF729FB0023C7E90033002D78D1DF
S21400313000231A462364A26307213046FDF7D4FD18
S214003140237843F0020323700020BDE8F087C2F323
S2140031500260C2F307415AF8200093B2012943EAFD
S214003160000310D98A0002EB08004146A3EB080EC4
S2140031700EEB010C51F8043FCCF800308842F7D132
S2140031800432904458E7120FD8F8040008F10808F3
S214003190072A3FF651AFDFE802F00A0408110C0FC9
S2140031A01417C04303F1806301E01A6850401860AA
S2140031B042E7FDF749FF3FE709FA00F003F1C06375
S2140031C0F5E709FA00F0EDE71A6830EA0202FBD1EB
S2140031D032E700238BE7234B0721196090F804C0E1
S2140031E087F800C0427992FAA2F3B3FA83F3202B51
S2140031F008BF4FF0FF335FFA83FE22FA0EF203F0A9
S2140032000F0343EA02137B708379BB70C379FB70AC
S21400321003680E4A7B600CF1010393610846FDF7D4
S214003220ABFA2B68002B83D02A69002A80D0D2E91B
S21400323000237FE7EC1F00210060084028000020E4
S214003240E00D0020841F002148E80100000008402F
S21400325000200840A0000840D80D0020A400084028
S2140032604C1F0021040008442C8D000020A10700FC
S2140032702DE9F04F764E774B774A5B68D2F80080A0
S21400328089B089463168039181880091002373498B
S2140032908DF81F308DF81E30D1F88810019211F489
S2140032A0002F18BF3360D0E909A718BF6C4B3568EC
S2140032B01CBF4FF400221A60BD42044603D115B16C
S2140032C0009B99453FD0BAF1000F00F0B680DAF8BF
S2140032D00830002B00F0B180DAF80C200292002AA9
S2140032E000F0AB809B4601220023BBF80E10494538
S2140032F02CD8BBF81010494528D3594620460593CC
S2140033008DF81E200492FEF7D1FEDDE90423E0B11D
S2140033108DF81F205F46534B93F800B09DF81F3082
S214003320DBB1A1782046FFF7B9F8B8F1000F61D0FD
S214003330D04532D18DB3BD422FD1009B994518D1CF
S214003340A762A4F80490002573E05F460299013353
S21400335099420BF1180BC8D1DDE79DF81E30002B03
S2140033606DD0414BB7F912101878FCF721FF0146D3
S214003370D8E72A46002349462046FFF7FFFA0546C7
S2140033800028DDD059462046FFF788F8002332682B
S21400339000992046FFF7F2FA4BE0D8F800304BB31E
S2140033A0DAF800209A4225D1D8F804102046FFF714
S2140033B037FE0546002844D139682046FFF730FE20
S2140033C0054600B3019BC3F80080039B3360B8F149
S2140033D0000F04D0D8F800102046FFF721FE59460B
S2140033E02046FFF75BF833681BB319682046FFF7E3
S2140033F017FECBE7DAF800102046FFF711FE054669
S2140034000028DFD1D8E7019BA762C3F800A0A4F884
S214003410049001233A46494620463760FFF7AEFA45
S21400342005460028CED1114B39461B68A4F10C0086
S2140034309847284609B0BDE8F08F0325F9E701252F
S214003440F7E7019BC3F80080039B3360C2E700BF29
S21400345068090020B081E00F6409002000400840A1
S21400346088400844150000202A0000203000002074
S21400347038B5374B0C46D3F8881011F0A001054636
S21400348063D14FF40060FDF777F921462846FFF731
S214003490EFFE044620B12846FEF7C0F8204638BDA9
S2140034A02C4B2D4A2D484FF44061196013789B022F
S2140034B003602B4B196053782A4A9B021360FDF772
S2140034C0DBFD294B4FF480621A60A3F5FC53143BD6
S2140034D004221A6003F53F53383340221A60234B08
S2140034E05C616C3B1A68D20542BF214A4FF480717A
S2140034F011601B6803F4C072B2F5C07FCED11D48C0
S21400350013F4001F036803F0070303F106014FF0EE
S214003510010303FA01F3016A0CBF03220422C1F37C
S2140035200C01013B8A429BB20AD24168C068024441
S21400353013400B4403F100531A780F4B5A60ADE763
S2140035402846FEF76BF80324A8E70224A6E700BF88
S21400355000400840A0000844D80D0020A0000846FF
S214003560A4000844A40008461C600844541F002118
S2140035708840084600100840F01E0021F8B5104BA1
S214003580CE685B684162002383624FF6FF7518279A
S214003590DAB2B24208D32C460A4B002221461A6001
S2140035A0FFF766FE2046F8BD8C6807FB0242D4890A
S2140035B0AC4202D2002CEFD025460133E8E700BF2C
S2140035C0B081E00F640900202DE9F8434C4D2C68CB
S2140035D06860237BD90750D50668477A436893FA14
S2140035E0A3F3484A1B0A136101239360F20759D5D7
S2140035F0237BDB0758D5444BD3F8303113F4004F08
S2140036000CBF5523AA2340490E66CA6D552B22F0DF
S2140036100F020CBF42F0010242F00202CA6596FA9F
S214003620A6F693FAA3F31B0B384A03F4702343EA77
S2140036301643374E166002F1007247F040071360DB
S214003640344B4422DA621F6303F18063343307226B
S2140036501A6003F1007301221A60D1F8303113F4B6
S214003660004F14BF2C4A2D4A4FF4804313602C4A57
S2140036704FF480431360536093602B8CD9050FD5AD
S214003680284B067A1A78B242994609D0012E04F1E0
S2140036900C080BD0022E20D06B681B7A89F80030FD
S2140036A0BDE8F883AA23AEE75523ACE7237BDA0709
S2140036B0F2D5FDF7D1FF01280646EDD11A4940465E
S2140036C0FFF75CFF282384F84860A4F852300221F4
S2140036D004F14400FDF708FBDEE7237BDB07DBD5C0
S2140036E0FDF7BAFF01280746D6D110494046FFF736
S2140036F045FF282384F84870A4F852303146E7E79F
S2140037009C1600200020084000600840FC6008442A
S214003710FFFF0F0000000840A0000846A000084475
S214003720A40008446C0900201C720000907400007D
S2140037302DE9F843334C344F2646637A334D013334
S214003740DBB2272B88BF252320466372FFF73CFF9A
S214003750B17B2F4896F80C800231FEF7ABFE6B6803
S2140037602C4A5B7A08F00108404612F80390FEF7F0
S214003770C5F8D5F80080494608F10C00FFF778FE3A
S214003780C0B9B8F85A1042F21073994294BF591A49
S2140037900146EFF3108972B6DFF88880D8F830312A
S2140037A0DB0704D4D8F80C0010F0060005D0484615
S2140037B0FCF7DEFFFFF7E8F9BFE7174B1870FDF7D9
S2140037C09DF8164BC8F86C30154BC8F870000822E8
S2140037D01A60144B4FF4006001223A60586640F6B7
S2140037E0014018670320FDF7CDFC18B90C4B80226A
S2140037F01A60DCE74846FCF7BBFF0B4B2B61BDE8C5
S214003800F88300BF5C030020305108449C1600205B
S21400381069030020048D0000261800200000010126
S2140038208840084400500840B53E000070B590F847
S214003830DC30032B05460E4611D0A970816A81B193
S214003840FEF734FC30B9A862A9882846FFF710FDB9
S214003850002070BD31462846FEF720FEF8E702201D
S214003860F7E70846F5E70000134A144C08B5937EC0
S21400387043F040039376124B00221A70114B1B78CC
S2140038804FF000556BB1FEF739F90F4B2B60012353
S214003890A360236823F4E06343F480632360FEF7A9
S2140038A0C5F82B600123A360236823F4E06343F488
S2140038B080632360FEF7BAF8F808002000500E4038
S2140038C0540900200504002002020FF010B5134C26
S2140038D0A37E5B0621D4FFF757F92168A38C40F23C
S2140038E0E24202FB0312226094F84F10A27A2520CF
S2140038F00A4492FBF0F100FB1122A27222890132E7
S214003900228162680A2101FB03236360238B5A1E0F
S214003910228313B90820FFF7A7FF10BDF808002080
S2140039202DE9F74FDFF88C91DFF88CA1534C40F669
S21400393001002189FDF71CFFA37E13F040022546F7
S21400394040F0998043F0010303F0FD0362F3820325
S2140039504B4AA376136823B121899288914200D1FD
S2140039609847A37A47481D4495F82A306375FFF7B1
S2140039702BFED4E90087444C444A63685B7A0120F6
S214003980D15C0191FDF7BAFF2568FDF765FE0128B9
S21400399005F10C068346019904D0FEF70FFFFFF7EA
S2140039A095FFC3E73046FFF763FC0028F5D1B5F86E
S2140039B05410EFF3108572B6354ED6F8302112F05B
S2140039C0010203D02846FCF7D3FEE6E7314BF36648
S2140039D0314B326783F800B0304B1A70D9F800309C
S2140039E023F02003C9F800304FF40063CAF800B093
S2140039F07F0873662A4BF366A8EB0703591A032061
S214003A00FDF7C0FB0028DDD0D6F83031DA0703D446
S214003A10244B5B685B04D5D5234B1D4E4FF0010B42
S214003A2083F800B0FDF718F9204BC3F800B04FF448
S214003A3080537366F36E23F0F85323F4F81343F0C1
S214003A40506343F4803308F16401F366002239447E
S214003A500420FDF797FB38B94FF40063CAF800B0AE
S214003A6073660C4BF366ADE72846FCF781FEFEF75F
S214003A70A5FE0F4B236103B0BDE8F08FF8080020C9
S214003A802C120020040900209C160020048D000043
S214003A9000500840000001012618002028180020C9
S214003AA0010C01000040084027180020405108443F
S214003AB0113B0000E81E00213051084408B5024BB7
S214003AC09879FFF7D1FE00BF2C12002010B5034CEA
S214003AD0A01DFDF7E1FE0023236010BD2C12002080
S214003AE010B5094CB4F80710A079FDF7C1FEA3681D
S214003AF0064AB4F80D10D184C3F30F239384FDF760
S214003B0099FE0023236010BD2C120020F808002028
S214003B1002282DE9F7430F460BD003D8012800F002
S214003B20AC81FEE7032800F0B081FF2800F0AD81ED
S214003B30F7E748784E68B84D10F001045BD14FF0B7
S214003B40FF3140F60300FDF713FE2646AB7EB34C6E
S214003B5013F0200F12D0696D6FF34513AB76002972
S214003B6000F09980237895F85820627043F003039C
S214003B702370A01C03F099FA00236B65A848FDF794
S214003B803FFEAA7E2378003018BF012060F3410272
S214003B90C2F30011AA7661F38203C2F3C00262F395
S214003BA0C30360F304132370218840F60200FDF778
S214003BB0DFFD617899480231C9B2FEF77BFCAB7E27
S214003BC07C68D90709D56FF30003AB7600236B60DA
S214003BD0FFF7FCF82860FDF72DFE4EB1237803F0C2
S214003BE00303022B00F031816DD8012B00F02C81ED
S214003BF003B0BDE8F083318840F60300FDF7B8FD5A
S214003C003378A97E96F80080C3F3001363F382012D
S214003C10A976C8F3C003C1F300118B4206D108F0A1
S214003C200303022B05D019D8012B31D000263446C9
S214003C3015E0A146767896B17A48848AFDF7E0FDCD
S214003C40201A80B2B9F1000F04D0022886BF0238CD
S214003C5080B2002086428CBF002401242646AB7E1C
S214003C60C8F38008C3F3C002904507D082F0010273
S214003C7062F3C303DBB243F02003AB76002C3FF4C1
S214003C8065AFAB7E81F0010161F30413AB765DE7AF
S214003C904FF00009CEE795F828306148A21C0DF1D8
S214003CA00701FEF718FBC0B258B19DF80730002B8D
S214003CB00CBF012202222378607062F30103237096
S214003CC05CE70122F7E7A378022B65D011D8002B1A
S214003CD04DD0012B38D0544A127822B1162B7FD003
S214003CE0182B00F08C805148072202704370022186
S214003CF027E00C2B18D0142B56D0082BEBD14C4BAE
S214003D0054F8035F198CC8B205EA0002474801F46C
S214003D107F41044642EA0105092104F8011B0023FD
S214003D20C0F8015063600CE040484FF0FF3203706B
S214003D30012343708270037102220023C270437114
S214003D400621FDF76BFD53E7617A237A394A43EA89
S214003D50012393801346384943F8061B54F8031F83
S214003D60C2F80610A2889A80A2799A7140E7627B10
S214003D70237B304943EA02238B800B462F4A43F8C5
S214003D80062B54F8032FC1F8062062685A60228971
S214003D901A81A27A9A722BE72A89264B05329A80D4
S214003DA0274A1A60E278E0E7B4F80530B4F8032052
S214003DB01E48DB08934228BF13462B851523002197
S214003DC06FF004046FF0270203700723817081717F
S214003DD04470C27003714471C27103720921B0E766
S214003DE02279E3781148134003F00303022B18BF2F
S214003DF0012317220270437083700321A1E76279C2
S214003E00A1790C4B42EA01229A800E4A1A60D4F835
S214003E100320C3F80620EBE6F80800209C1A0020D2
S214003E2010110020F80F0020291200204012002058
S214003E309C1600202C120020CD3A0000E13A00002B
S214003E40BD3A00009D3E000000261248818AFDF71C
S214003E50D7FC081AA51C80B2647826B1022886BF53
S214003E60023880B20020A3B283423FF6C1AE2A4693
S214003E7031460848FEF767F9BAE6074B9B7E9A0775
S214003E803FF5B6AE5B073FF5B3AEFFF71FFDFFF796
S214003E9047FDADE6F80F0020F8080020034B044A63
S214003EA09979117500221A60704700BF2C12002005
S214003EB0F808002002282DE9F0411FD002D801287A
S214003EC007D0FEE7032800F09880FF2800F09580D2
S214003ED0F7E74B4C237B980707D5FEF755FEFFF711
S214003EE027FC237B6FF341032373237B990701D4BD
S214003EF0DA0764D4BDE8F041FFF71ABC4B784C688B
S214003F00DB077AD5227802F00F07032F59D0052F4A
S214003F1073D13C498B7B03F00103B3EBD21F04F152
S214003F2008004CD10622083103F0B0F8804600287D
S214003F3045D1FEF729FEFEF749FF334D41460646BA
S214003F405C22284603F09AF8AB7E2F8343F02003CA
S214003F50AB76627E237E43EA0223AB84627F237FB6
S214003F6043EA0223EB8494F82330C3F3040385F872
S214003F704F3094F82330C3F3421385F8503004F1E1
S214003F801E001B232B85FDF787FCD4F80E30E27C41
S214003F90EB60A37C2E6043EA0223227D607D43EA29
S214003FA002432B61012795F84F30AB722F75E18ADB
S214003FB03944FDF75DFCFFF7B3FC144B1F70BDE8FA
S214003FC0F08110498B7B03F00103B3EBD21F04F1A1
S214003FD00800F4D10622083103F058F80028EED184
S214003FE0074C94F8361004F135000231FEF762FAF9
S214003FF0237B43F002032373E1E7FEF7C5FD79E771
S2140040005C0300209C160020F808002054090020BD
S2140040102DE9F04385B088466946044681E80C00E1
S2140040200C9EBDF83470FDF7B5FD4FF6FE790546DB
S2140040300DB1444505D94FF6FF74204605B0BDE8DE
S214004040F0832B7A9DF804209A421ED10099686866
S21400405003F01CF8C8B9002EEFD02B69AA8AA3B1CA
S2140040604A4509D10290ADF80C0002A9984760B9FC
S214004070029BBDF80C2043B1974206D13A4619463A
S214004080304603F003F80028D7D001342D68A4B2D8
S214004090CEE738B50D4611462C68A41A22460144D0
S2140040A003F00EF82C6038BD2DE9F047DFF86C8180
S2140040B04F4CD8F800304F4EC51A4F483560241A7A
S2140040C04E48044424F4FF6424F00704A542C14685
S2140040D070D313445F19FDF743FCA0F58050874268
S2140040E068D2D8F800008418B4F5806F03D9444B22
S2140040F082221A705CE0DFF82081424F404402F0D2
S214004100D4FFD7F800A0C9F80040BAF1000F1DD1BF
S214004110B4F5867F4CD33C4A08F1FC0308F5867854
S21400412053F8041B42F8041B4345F9D13648FDF703
S2140041301FFC10B9324B8422DBE71022FF213348E4
S21400414002F09CFF324A05F1FC03136004F00308FA
S21400415030482C44A4EB08040440BAF1000F0AD1FE
S2140041602840C0F500612144FDF772FC3C6048B170
S214004170234B8522BDE7A24504D2A4EB0A010AF52B
S2140041800060F1E7D9F8002023493068A2EB080266
S214004190FDF776FCD9F8002033682049A2EB080228
S2140041A0044613441C483360FFF773FF002CDFD12E
S2140041B0BDE8F0871A4B5B68B3F1827F104B12D2D2
S2140041C018780A4400268A4203D1002EF0D01870D0
S2140041D0EEE711F8017BFF2FF5D00126A54234BF8C
S2140041E087208320EFE7A54234BF8722832280E71B
S2140041F0A4000020DC0D0020100000209795000091
S214004200C50D0020941600204C1200205E130020DE
S2140042105C12002000F8FFFF6212002064160020E7
S2140042201C0400202DE9F04F01288BB040F0488197
S2140042308A88002A00F04681A44D95F800B0BBF1AC
S214004240000F00F04181A24B1C7898465CB9A1484B
S214004250067882463EB9A04E30681718B7F5806FCC
S21400426005D982241C7020460BB0BDE8F08FDFF81D
S21400427088920968484402F018FFBBF1020F3760C5
S2140042803DD0032FEFD9954F3846FDF747FC3B78D6
S214004290D9F80020012B924B62D19A4262D1BB68BA
S2140042A0DB0368D502232B70FDF728FC8D4B1A68BC
S2140042B0A2F17E63A3F58433B3F5605F0BD2126B75
S2140042C0A2F17E63A3F58433B3F5605F03D29368EF
S2140042D003A9002098470398834B844A186020F46B
S2140042E0FF6323F007034FF400611360FDF7B0FB94
S2140042F088BBFDF75DFB40BB2B78022BB3D17C4916
S2140043007C4F08783A68336810F0F70F894640F01B
S214004310AC8075490D681D4403F0030B1544734BC0
S2140043200193A5EB0B0525F4FF65186825F0070536
S214004330854223D9291A00F50060FDF789FB019B09
S214004340D8B1852488F800408DE74FF40061FDF76A
S2140043507FFB0028D0D0852388F800301C4682E7F3
S2140043609A4208D0842388F8003098F80030002B52
S2140043703FF479AFF0E78623F5E71D6031683868CB
S214004380A1EB0B01FCF790F832683B685249A2EBB0
S2140043900B020546134458483B60FFF77AFE002D93
S2140043A0CFD199F80030002B7FF45DAF3B687F2BB0
S2140043B07FF759AF02A903A8FCF74CF810B9039B86
S2140043C089F8003099F8003013F0F70F3FF44BAF40
S2140043D0444D3B682968A1F17E62A2F58432B2F5AD
S2140043E0605FAED2096BA1F17E62A2F58432B2F5AF
S2140043F0605FA6D2D1F80C903F4A00210846C84715
S21400440000289ED13B683360384B3C4F18603C4BCD
S2140044107B602A68A2F17E63A3F58433B3F5605F00
S2140044208FD2936A37484FF400719847002888D196
S21400443029683368A1F17E62A2F58432B2F5605F26
S2140044403BD2CD6A2C4A2F483946A84705463268E3
S21400445021492948FFF71DFE40F203239D421ED046
S21400446040F201239D4226D1FDE61A443A601D4AD9
S2140044701168A1F17E62A2F58432B2F5605F12D2B5
S214004480CD6A1D4A1D491F48A8470546326812498D
S2140044901948FFF7FEFD40F203239D4206D1012393
S2140044A08AF80030DFE640F20225EFE740F201230B
S2140044B09D423FF476AF802444E740F20225C6E7EB
S2140044C00024D0E60D24CEE68124CCE6C60D0020DE
S2140044D0C50D0020C40D0020C00D00201C040020C7
S2140044E0EB17A6032808E10F8C180020941600206E
S2140044F0F8030020E40D0020C0090020E80D00208D
S214004500A9400000F80D002001282DE9F34740F0EF
S2140045102F818B88012B40F02D810B681B7813BBF5
S214004520994A9A4C13609A4A13609A4A13609A4AB8
S21400453013609A4A13609A4A13709A4A13609A4A0A
S21400454013602278022A01D1FDF7C8FA01232370EE
S214004550964B00241C70964B1C70964B1C70204685
S21400456002B0BDE8F087032B40F0EF80914B874EFA
S2140045701C789846002C4AD13378002B00F0DD805A
S214004580874B1B78082B7AD17F4A136890468BB9E5
S214004590894D2B68A3F17E63A3F58433B3F5605F82
S2140045A050D34FF4017041F20803984200F0C780E0
S2140045B080242CE013F003071ABFC7F10407FFB2EC
S2140045C0274603EB070ABAF5806F00F2BC807B48EB
S2140045D03A461844FF2102F051FD724B6C4AC8F867
S2140045E000A015681A6815445544DFF8B0A125F4F4
S2140045F0FF65DAF8000025F00705854299460BD9D5
S214004600291A00F50060FDF723FA18B18524002367
S2140046103370A4E7CAF80050D8F80010D9F80000A4
S214004620FBF742FFD9F80030D8F80020564913446B
S2140046300546DF1B6148C9F80070FFF72AFD002D0C
S214004640A6D0E3E7FBF754FF0028ACD12A68019018
S214004650A2F17E63A3F58433B3F5605F0BD2126BD1
S214004660A2F17E63A3F58433B3F5605F03D293694A
S214004670012101A898474E4B01221A70C7E7002B6C
S2140046805FD04A4B1B78002B92D0474F3B68002BDD
S21400469049D013F003021CBFC2F10402D2B29D1827
S2140046A0B5F5806F4FD84648FF21184402F0E6FC67
S2140046B0444A454B374845493D609B1A444A134493
S2140046C002680B409342814658D81544FDF748F9D6
S2140046D0A0F58050854255D23D68DFF8C0802A4458
S2140046E0D8F8000002EA0105854208D9291A00F523
S2140046F00060FDF7ADF9002888D1C8F800503A6888
S2140047002F49D9F80000FDF7BBF9D9F800303A6810
S2140047102549054613442A48C9F80030FFF7B9FC76
S214004720002D7FF473AF1C4B2A4918681022FDF742
S214004730A7F900283FF46BAF68E7812467E7862473
S21400474065E7842463E7822461E7042B14D1224CB6
S21400475013230221637020462170FDF75FF81F4A7D
S2140047601F4B128905329A801E4A1A6062789A7127
S2140047700024F4E60D24F2E60624F0E6872388F803
S2140047800030D0E78323FAE7C00D0020C60D0020D6
S2140047908C180020DC0D00205C12002094160020EF
S2140047A0F8030020E40D002064160020C40D00204D
S2140047B005040020C50D00202808E10FC0090020D0
S2140047C06212002010000020A400002000F8FFFF66
S2140047D0979500004C12002040120020F808002098
S2140047E02C120020BD3A0000024B1A6FD96F0A4007
S2140047F09A677047003008400F4A136BD16B0B4026
S21400480010B59363DB0715D50C4BD3E900230021C5
S21400481002F0010050EA010302D11220FCF75CFE10
S214004820074C01230022012000212370FDF784FE9F
S2140048300023237010BD00BF00700840D00D00207C
S214004840281200200F4B10B55C691A6A1440A2B2F9
S214004850DA61E20706D5FCF70DFA014640F20510CC
S214004860FCF786FF63070CD5074B084C1A68002038
S214004870012302F0040200212370FDF75DFE0023F1
S214004880237010BD00400840C80D002028120020EC
S2140048902DE9F84F894B1E6EDA6E16409E6603F5BC
S2140048A08053D3F8E070D3F8EC201740C3F8E870D4
S2140048B003F5A043D3F80012D3F80C2201EA020B4A
S2140048C0C3F808B2A3F5005359691A6A01EA020848
S2140048D04FEA18421204DA61794BD3F800229200AC
S2140048E005D4D3F80031C3F34073002B53D0EFF355
S2140048F0108072B6734BDA68D96D12F0060F9A6E96
S21400490001EA020929F4800214BF4FF0010A4FF0B1
S214004910000A22F4006219F0040F5A6604D06A4AAC
S21400492013780133DBB21370FBF722FF002E4CD056
S214004930330433D5654BD3F8884003F1806388335E
S21400494004F4E0551D60FCF777FE4DB3E5042AD469
S21400495060052BD54FF40014B1074FF0000509D5BC
S2140049605A4B5B49D3F8883003F460420A6002BBB6
S21400497044F4801416F4005618BF0226554B3B40EC
S214004980002B5FD017F4206F22D00020FDF7FEFE2C
S2140049900620FCF7A1FD9A469946C7E70024DBE708
S2140049A04FF40024D8E74FF00074D5E74FF4000426
S2140049B0D2E71A0402D544F08064DBE798044CBFC3
S2140049C044F4800444F08074D4E700240025D5E73E
S2140049D017F0090008D03D4B20229A60A3F54053FB
S2140049E001229A620820D4E717F010630DD0374BE7
S2140049F020229A60384A0123C2F8B830FDF748FBF7
S214004A000423C2F8B8300920C3E717F4202F04D0D7
S214004A101846FDF7BBFE0720BBE7F90312D52F4B60
S214004A204FF480321A602C4BC3F8E420D3F8802071
S214004A30C2F30C02782A05D8D3F8E030DA0301D5A1
S214004A40FCF704FD7B0709D5254B1A684FF4005385
S214004A50002A2DD0234A44F480241360780548BFEA
S214004A6044F0040417F480274CD01F491F4A0B88D3
S214004A7012881F481A44073A08339BB202F078029D
S214004A800B8002441B494B62937803F00703042B08
S214004A9003D10E4841680903FCD41749013B0A605C
S214004AA0062B08D8DFE803F02CCD2CD0D3D6D600C2
S214004AB0124A1360D2E703206BE700BF00000840ED
S214004AC000E100E000500840A51B00200040084020
S214004AD088400844090A0B0900100840EC100844F6
S214004AE0B4040243241008444A0100204801002070
S214004AF0C800002060100840340600202410084635
S214004B0044F40054BBF1000F1DD01BF4805F18BFA7
S214004B1044F400441BF4807F18BF44F480341BF434
S214004B20005F18BF44F010041BF4007F18BF44F069
S214004B3020041BF4806F18BF44F040041BF4006F81
S214004B4018BF44F08004B8F1000F2BD018F0007F97
S214004B5018BF46F0080618F0806F18BF46F010061B
S214004B6018F0006F18BF46F0200618F4802F18BF04
S214004B7045F0040518F4803F18BF44F4006418F4A8
S214004B80801F18BF44F4804418F4001F18BF44F078
S214004B90020418F4002F05D0AC4B1B685B065CD5EE
S214004BA044F40034B9F1000F00F0898019F4006F66
S214004BB015D0A749A74ACB78002B57D0013B4FF416
S214004BC00060DBB25066CB704BB9A34B197840F649
S214004BD00143002956D002F1C0626C32136019F00E
S214004BE0007F04D02B20FCF7E9F944F0804419F448
S214004BF0E00F06D119F4805F55D0BAF1000F00F02F
S214004C00D98019F4001F04D02920FCF7D7F944F006
S214004C10005419F4800F37D0904BDFF838A20122E9
S214004C201A604FF48053CAF864302720FCF7C6F9A0
S214004C30FCF702FD4FF48003CAF8643044F0805459
S214004C4031E044F480645DE744F400745AE744F4C9
S214004C50807457E744F0080454E7FCF70BF8831E0B
S214004C60DBB2012B9CD907289CD199E77C4901200F
S214004C7008607C484FF4006141F61F7C5166C0F81E
S214004C8000C051661367AAE719F4801F77D0734BEC
S214004C9001221A606F4B4FF480525A662820FCF7A8
S214004CA08DF944F0006419F4806F08D0684A937850
S214004CB0002B00F0C280013B937000231E436A4B1A
S214004CC0DFF8EC91D3E900AB684B1A680AEA0400F7
S214004CD0012332400BEA050189F80030FDF72CFC71
S214004CE0002389F80030EFB1614C2368C3B1D807C0
S214004CF014D4EFF3108572B65E4E5F48378807F01F
S214004D007F0101F0780C022B844440F01881236860
S214004D10002B40F0CF802846FBF72AFD00232360B7
S214004D20FDF710FDB8F1000F27D018F0007F12D065
S214004D30524BD3F83821D20600F11681D3F8002161
S214004D4022F47F11520802F4FE120A43C3F800212F
S214004D504FF00072DA6118F0006F0ED0474BD3F8B0
S214004D60383113F0100F0CBF454A464A4FF4001373
S214004D701360454B4FF000621A60BDE8F88F19F4D7
S214004D80805F90D0354B334A012119604FF4805331
S214004D9053662220FCF712F94FF480235360D36D3C
S214004DA013F4A00F7FF47FAF2A20FCF707F9374BE8
S214004DB0996243E7264A137963B1013BDBB213716C
S214004DC023B10022002314431D436CE7304B314AC5
S214004DD01A60F6E7214B01221A601E4B4FF48051F1
S214004DE059661F490A604FF400625A662A4ADA6614
S214004DF0EFF3108B72B6294B1B780BB1FBF742FF13
S214004E00224B1A6DFBF736FF032802D0C2F30C02C2
S214004E102AB1234B1A78234B4FF0010A1A705846D2
S214004E20FBF7A6FCBAF1000FCBD11F4B83F800A00E
S214004E30FBF714FE4FF48052C4E71C4A01231360AC
S214004E40044A4FF48061516638E700BFE81E00212F
S214004E504C0100200050084026180020405108440D
S214004E60305108446C500844D00D0020C80D002076
S214004E703406002048010020C800002000400840FA
S214004E8000410844184108442040084400100840E7
S214004E906C5008460000010D000001012718002094
S214004EA028180020681600206012002020510844B0
S214004EB02812002023F00103226822F001029A4201
S214004EC041D1002222601A886FEA42426FEA5242BB
S214004ED09C451A802AD12A490A8802EB0709294FDD
S214004EE08C46A7F1800A083A92B203F10801A9EBB2
S214004EF00200B94228BF5146082A80B22DD89978B8
S214004F001B88214FACF80020C3F30C03FB6301F0B1
S214004F100701C3B21D4833800429C360426205D12D
S214004F201B4B1B6803B19847FCF71AF8164BD3F8CF
S214004F30E030D9037FF5EFAEFCF788FAEBE6012BFD
S214004F4008BF6346B8E75A1A0D490988121A48BFBF
S214004F50803208399142B6DCDDE6B1F900E0BEF1F8
S214004F60000FCCDA0B46BEE7D3F8182122F47F11E7
S214004F70520802F4FE120A43C3F81821E8E600BFFE
S214004F804A01002048010020001008406010084038
S214004F9098160020FFF77CBCFFF77ABCFFF778BCBA
S214004FA0FFF776BCFFF774BC024B59699A680A4053
S214004FB01A617047004004407047FEE7044B054AFC
S214004FC09A60D3F8882042F47002C3F888207047AD
S214004FD000ED00E0000000002DE98048AD4B5B6866
S214004FE05A05A9B000F175834FF0005300221A60ED
S214004FF020A8FCF793FDFCF7DBFC0546002840F0F4
S2140050007183A54B01225A641A6842F480721A60B2
S21400501003F5405302229A639A6B02F00F02022AAB
S21400502040F0BE80DA6C22F0405222F0010242F0DC
S2140050300102DA64D3F8E02042F44072C3F8E020BC
S214005040DA6E42F08072DA66944B186800B104207B
S214005050FBF722FB924B934CC8221A80924BA0225D
S2140050601A80924B0F2000251880FBF7ADFA904B64
S214005070A365CDE91855CDE920558E4BD3F8683198
S214005080C3F30722DBB222921A93E36CC3F30178D0
S2140050902A46434620A918A8FBF710FBD4F8E07070
S2140050A0C7F301272A463B4621A919A8FBF706FBAA
S2140050B0229C1A9ADDF880C0DDF86490A11A4FF49D
S2140050C016735943B1FBF3F32946189DD2184FF4D3
S2140050D01676ACEB050028BF01217043B0FBF6F056
S2140050E02D182198A0EB09032CBF4FF0010E4FF0AE
S2140050F0000E7343B3FBF6F319EB03092CBF012331
S214005100002394424CD300294AD1484548D3002B6B
S21400511046D1AC4544D3BEF1000F41D1614CE36D9E
S21400512023F4FE4323F0020343EA0223E3654046EA
S214005130FBF71AFA002833D001213846FBF714FA99
S21400514000282DD0636E4D4538BF4D46E72D23F41D
S214005150FF7328BFE72523F0010343EA4503636690
S214005160E36B43F48063E363214623469A6FD707D5
S214005170FCD41B6C504A13F003030DD001231360BC
S2140051808B6FDE07FCD40B6C23F003030B644549DE
S2140051908B6F13F00103FBD11360484B01221A609A
S2140051A0474C3D4E1120FBF7F9FA00210220FBF791
S2140051B0A5F8636A434823F001036362424B002567
S2140051C01D60A36A23F0070343F00603A3623F4B68
S2140051D0E362226B3E4B02F07F62134323633D4B38
S2140051E063632946FDF782F93B48FBF765FB01211F
S2140051F00220FBF783F8376C324841F6713333648C
S2140052002946FBF729FB07B13564344B1D68002D92
S214005210FCD102276767FCF75FFEFBF74DFBFCF748
S2140052204DFE0646FBF796FA01463046FBF736FB80
S2140052301C4B24481B68666A0121FDF757F9FBF7EB
S21400524089FA01461F48FBF729FB1E48FBF734FB8B
S21400525046F0405601213846FBF750F86662D4F80F
S214005260C830144E43F00103C4F8C8301C4CB36A6F
S214005270A3650AAA0CA93520FCF730FEB3462346E0
S21400528080B39DF82820042A06BF0C9A106828468A
S21400529028E000BF00500E4000000E408009C643C4
S2140052A08E09002000300E40920900208C09002054
S2140052B0372110B7B081E00FB40AC6439407C6433F
S2140052C000400E4000F04902A004C843200005003C
S2140052D007450BD047A002000148E801C800C643B6
S2140052E000500840C50340F13B829A6D8DF8382087
S2140052F09A6D8DF839209A6D8DF83A209A6D8DF852
S2140053003B209A6D8DF83C209B6D43F060038DF832
S2140053103D309DF83E3043F001038DF83E30B44BEF
S2140053200EAA5A60B34BB44A9A6000264FF48071B6
S214005330C3E9002259611E82B04AB14BB14D9A6052
S214005340C3E9002259612022314620A81E8201F0BE
S21400535095FEFC228DF883200823AB4A8DF8813019
S21400536021928DF8913040F20172F823ADF88A2030
S2140053708DF89330A54AA64B239201278DF88870A6
S214005380259320AC0FCC0FC594E80F0085E80F00DE
S214005390A04BA1495960A149A14A0B60A1491A60D6
S2140053A00A60DA6BA0495E62B24208BF0A469F49AD
S2140053B00A604FF6FF724FF064115E73C3E91D6614
S2140053C09E63A3F8D0201E65C3E91511D9659A829D
S2140053D0974B11201A80FBF7E1F9042841F08580ED
S2140053E0944B5B6813F4403F41F07F80924B9349A7
S2140053F09348FD22C3F8C820C3F8CC70914B1A68B6
S21400540042B102EA0104844204BF5C6814600833B7
S2140054105B45F4D18C4B8D495A691A691A699A69A9
S214005420DB698B4BC1F8443148F2E673C1F838317A
S2140054304FF40863C1F83431864BC1F8A030864B70
S214005440864D874C4AF63F429A6003F580434FF0FC
S214005450C0729A620023C1F8FC30824BC1F89C30BF
S214005460814B7F221A6003F1007323221A6003F532
S2140054704253343303221A604FF40023C1F89430A9
S214005480012640232E60794A2B604FF46073236018
S2140054904FF0407313609361754AFF23136002F167
S2140054A00072136002F17E42483A4FF460231360A4
S2140054B002F100721360FBF775FA26600C4607953A
S2140054C0FBF7D8FB05460028FAD101234FF004501D
S2140054D0E06741F29042C4F88030664901F0E5FD8D
S2140054E0654B2366654C66482668AC22294601F063
S2140054F0C5FD644B644A5A60644B1B7803B1266052
S2140055006C220021624801F0B9FD504B0022C3F81E
S2140055108820C3F88C20C3F89020DBF85420DBF8F2
S2140055200030D2B2FF2A43F3074301D05C1C01D1FE
S214005530902219235249574DDFF88C81022093FBA5
S214005540F0F342FA83F3CB7323234B73524B8873E7
S2140055504FF603721A6003F10073079A00241C606A
S2140055604FF0804313604D4B4D4A1A604D4B4FF041
S21400557007021A804C4B4D4A1C804D4B1C605A60EB
S2140055804FF400525A624B4BF0221A6003F100733C
S214005590A0221A60484B4FF0010AC3F8B8A0FBF7E8
S2140055A06FFF464BC3F800A0454B2B60FCF778FB1B
S2140055B04FF4FA734FF47A77B0FBF7F67343049020
S2140055C0180218EB00084FEA13614FF0000949EB88
S2140055D00109002340463B4A494600F0A9FFA0F5D2
S2140055E080738046AB62002840F0E4806EE000BF27
S2140055F008040020101100202811002010100020A0
S214005600F80F00206C160020547100004671000050
S21400561098710000CC160020C0160020580100200B
S214005620B52B000024000020E71500003000002005
S2140056302418002000300E4000400E400000FFFFFF
S214005640000008400080E00FD0FF0FE00040084058
S214005650C0E653517A27000F0030084094400846B1
S2140056600C400846806D630324300844F840084622
S2140056707860084468770000C01F0021E81F0021FA
S214005680541F0021EC1F00213F003700611200204C
S214005690E81E0021005008407C00084498160020B0
S2140056A03D0900004A010020480100204F17002055
S2140056B09010084040000844001008400C40084481
S2140056C00011010040420F0020A107002B20FBF72D
S2140056D003FF4FF000531A68022A7FF485AC0022BD
S2140056E01A608EE49DF88030012B32D1446BFCF7B3
S2140056F005FA229B5B0715D5FCF75AF9FCF7DEF98D
S2140057000446FCF7EBF9002C3FF47BACFCF750F9B1
S2140057100446FCF74DF9254B986023689D46636860
S21400572098476EE484B1FCF71BF984420CD2FCF770
S21400573017F904F13803834206D8636923B120467B
S214005740FCF716F90028D7D105F1FC00FCF710F994
S214005750D6E7FC30FCF70CF900283FF452ACD5E74E
S2140057600DF127020CA92C20FCF7B8FB00283FF40B
S214005770D9AD0EAC9DF827200C99204601F095FC7B
S2140057800DF127020CA93C20FCF7A8FB9DF83E3043
S21400579040B10C9A127862F300038DF83E30044B49
S2140057A05C60BFE560F30003F7E700BF00ED00E0D4
S2140057B00804002007FB00F24FEA520C3302194699
S2140057C014EB0C00234641F1000100F0B1FEC04B83
S2140057D0CDE90201039A1A60BE4B029A1A604FEA9C
S2140057E008604FEA1828002E3FF470AFA0FB07238E
S2140057F007FB0833104619464FF4FA67049BB3FBC1
S214005800F7F7C0193246234641F1000100F090FE3A
S214005810B14BDFF840831960B04B1860DDE9020138
S214005820023041F10001830843EA8173013B2B6398
S214005830AB4B4FF00052C3F880211A60C5F804A0A5
S214005840DFF814A30723CAF88430FCF729FAC70840
S214005850030B1946FB050646184610EB08004FF0EA
S2140058600009A04ADFF8F48241EB0901002300F0AA
S2140058705FFE9D4B18604EF66020FBF71FFADDE9D1
S2140058800223DFF8DCC24042C8F83400A2FB0C0159
S214005890D5F830E0CDE90401059900230CFB03138D
S2140058A00593DDE90401039B10F1004041F100017E
S2140058B00CFB031272454FEA565328BF7246194630
